:020000040800F2
:100000000000032011190008B1180008B3180008F7
:10001000B5180008B7180008B9180008000000005B
:10002000000000000000000000000000BB180008F5
:10003000BD18000800000000BF180008C118000823
:1000400061190008611900086119000861190008A8
:100050006119000861190008611900086119000898
:100060006119000861190008611900086119000888
:100070006119000861190008611900086119000878
:100080006119000861190008611900086119000868
:100090006119000861190008611900086119000858
:1000A0006119000861190008611900086119000848
:1000B0006119000861190008611900086119000838
:1000C0006119000861190008611900086119000828
:1000D0006119000861190008611900086119000818
:1000E0006119000861190008611900086119000808
:1000F00061190008611900086119000861190008F8
:1001000061190008611900086119000861190008E7
:1001100061190008611900086119000861190008D7
:1001200061190008611900086119000861190008C7
:1001300061190008611900086119000861190008B7
:1001400061190008611900086119000861190008A7
:100150006119000861190008611900086119000897
:100160006119000861190008611900086119000887
:1001700061190008611900086119000800000000F9
:100180006119000861190008611900086119000867
:100190006119000861190008611900086119000857
:0C01A000611900086119000861190008CD
:1001AC0010B5054C237833B9044B13B10448AFF3A5
:1001BC0000800123237010BD1000002000000000FF
:1001CC00BC19000808B5034B1BB103490348AFF336
:1001DC00008008BD0000000014000020BC190008BD
:1001EC0053B94AB9002908BF00281CBF4FF0FF3192
:1001FC004FF0FF3000F07AB9ADF1080C6DE904CE88
:10020C0000F006F8DDF804E0DDE9022304B07047E5
:10021C002DE9F0478C460D460446089E002B51D123
:10022C008A4217466DD9B2FA82FEBEF1000F0BD08E
:10023C00CEF1200C01FA0EF520FA0CFC02FA0EF7A6
:10024C004CEA050C00FA0EF44FEA174A250CBCFBDD
:10025C00FAF81FFA87F90AFB18CC45EA0C4508FB9B
:10026C0009F3AB420AD9ED1908F1FF3280F0238172
:10027C00AB4240F22081A8F102083D44ED1AA4B231
:10028C00B5FBFAF00AFB105544EA054400FB09F9EA
:10029C00A14509D9E41900F1FF3380F00A81A14589
:1002AC0040F2078102383C44A4EB090440EA0840C0
:1002BC000021002E61D024FA0EF400233460736008
:1002CC00BDE8F0878B4207D9002E54D0002186E878
:1002DC0021000846BDE8F087B3FA83F1002940F00D
:1002EC008E80AB4202D3824200F2FA80841A65EB14
:1002FC0003050120AC46002E3FD086E81010BDE867
:10030C00F08712B90127B7FBF2F7B7FA87FEBEF1F7
:10031C00000F34D1EB1B3A0C1FFA87FC0121B3FB05
:10032C00F2F8250C02FB183345EA03450CFB08F3E5
:10033C00AB4207D9ED1908F1FF3002D2AB4200F203
:10034C00D1808046ED1AA3B2B5FBF2F002FB10553A
:10035C0043EA05440CFB00FCA44507D9E41900F161
:10036C00FF3302D2A44500F2B8801846A4EB0C046B
:10037C0040EA08409DE731463046BDE8F087CEF1B3
:10038C00200405FA0EF307FA0EF720FA04F83A0CDB
:10039C0025FA04F448EA0308B4FBF2F14FEA1845D5
:1003AC0002FB11441FFA87FC45EA044501FB0CF3E0
:1003BC00AB4200FA0EF409D9ED1901F1FF3080F0CF
:1003CC008A80AB4240F2878002393D44EB1A1FFA17
:1003DC0088F5B3FBF2F002FB103345EA034500FB52
:1003EC000CF3AB4207D9ED1900F1FF386FD2AB42D9
:1003FC006DD902383D44EB1A40EA01418FE7C1F157
:10040C00200722FA07F88B4005FA01F448EA0303A7
:10041C0020FA07FE4FEA134CFD404EEA040EB5FBE2
:10042C00FCF94FEA1E440CFB19551FFA83F844EAF9
:10043C00054509FB08F4AC4202FA01F200FA01FA94
:10044C0008D9ED1809F1FF3043D2AC4241D9A9F1DA
:10045C0002091D442D1B1FFA8EFEB5FBFCF00CFB94
:10046C0010554EEA054400FB08F8A04507D9E418DE
:10047C0000F1FF3529D2A04527D902381C4440EAA7
:10048C000940A4EB0804A0FB02894C45C6464D4626
:10049C0015D312D056B1BAEB0E0364EB050404FA73
:1004AC0007F7CB401F43CC40376074600021BDE898
:1004BC00F0871846F8E69046E0E6C245EAD2B8EB7B
:1004CC00020E69EB03050138E4E72846D7E74046FE
:1004DC0091E78146BEE7014678E702383C4445E7A0
:1004EC00084608E7A8F102083D442BE7704700BF17
:1004FC0038B50E4A0E4B054618784FF47A73B3FB99
:10050C00F0F31068B0FBF3F000F09CF8044658B917
:10051C000F2D09D8024629464FF0FF3000F05EF847
:10052C00044B20461D6038BD012038BD0C00002056
:10053C00000000200400002008B50B4B1A6842F4A0
:10054C0000721A601A6842F480621A601A6842F4E7
:10055C0080721A60032000F02FF80020FFF7C8FF0C
:10056C0001F084F9002008BD003C0240034A044B12
:10057C0011681B780B441360704700BF2C000020DF
:10058C0000000020014B1868704700BF2C000020B1
:10059C0038B50446FFF7F6FF631C1CBF054B1B78F0
:1005AC00054618BFE418FFF7EDFF401B8442FAD84C
:1005BC0038BD00BF00000020074AD36823F4E06375
:1005CC001B041B0C43F0BF63000243F4003300F424
:1005DC00E0600343D360704700ED00E0174B30B58B
:1005EC00DC68C4F30224C4F10703251D042B28BFC7
:1005FC000423062D4FF0010505FA03F303F1FF3335
:10060C008CBF033C00241940A14005FA04F4013CC2
:10061C002240002842EA01024FEA0212AFBF00F169
:10062C00604000F00F00064BD2B2A5BF00F5614050
:10063C00D2B21A5480F8002330BD00BF00ED00E0A8
:10064C0014ED00E00138B0F1807F0AD2064B074A66
:10065C005860F02182F823100020072298601A605D
:10066C0070470120704700BF10E000E000ED00E093
:10067C002DE9F04F85B00B68DFF8C4816E4ADFF8C6
:10068C00C491019300234FF0010E019C0EFA03FE5E
:10069C000EEA0406B64540F0B6804C6824F010070C
:1006AC00022F16D14FEAD30A00EB8A0A03F0070B8C
:1006BC00DAF820504FEA8B0B4FF00F0C0CFA0BFCB6
:1006CC0025EA0C0C0D6905FA0BF545EA0C05CAF880
:1006DC0020504FEA430A0325D0F800B005FA0AF57A
:1006EC00ED4304F0030C0BEA050B0CFA0AFC013F7A
:1006FC004CEA0B0C012FC0F800C011D8876807EA30
:10070C00050BCF6807FA0AFC4CEA0B0787604768B1
:10071C0027EA0E0EC4F300179F4047EA0E07476006
:10072C00C7683D408F6807FA0AF73D43C560E5008E
:10073C0069D54FF0000BCDF80CB0D8F844703F4D94
:10074C0047F48047C8F84470D8F8447007F48047E1
:10075C000397039F23F0030707F1804707F59C37A6
:10076C0003F0030CD7F808A04FEA8C0C4FF00F0ED7
:10077C000EFA0CFEA8422AEA0E0E4BD005F5806547
:10078C00A84249D005F58065A84247D005F580659B
:10079C00A84245D005F58065A84243D0484543D0D2
:1007AC0005F50065A84241D005F58065A8423FD00B
:1007BC0005F58065A8423DD005F58065A84214BFBB
:1007CC000A25092505FA0CF545EA0E05BD601568E4
:1007DC00F74314F4803F0CBF3D403543156055681A
:1007EC0014F4003F0CBF3D4035435560956814F43C
:1007FC00801F0CBF3D4035439560D568A40254BFA3
:10080C003D403543D5600133102B7FF43CAF05B030
:10081C00BDE8F08F5D46D5E70125D3E70225D1E78A
:10082C000325CFE70425CDE70525CBE70625C9E74A
:10083C000725C7E70825C5E7003C0140000002403A
:10084C0000380240001402400AB18161704709046B
:10085C00FBE7000037B500230193184B184C1A6CBA
:10086C0042F080521A641B6C03F080530193019B7D
:10087C00144B01221A60FFF785FE05466368DA0304
:10088C000BD5114B0E4C01221A60FFF77BFE05466F
:10089C0063689B030AD5002006E0FFF773FE401B3C
:1008AC00B0F57A7FEAD9032003B030BDFFF76AFEBA
:1008BC00401BB0F57A7FEBD9F5E700BF003802405A
:1008CC000070004040000E4244000E422DE9F341FE
:1008DC00044618B9012002B0BDE8F0810368DD07B9
:1008EC0010D42368980758D423681A0700F19A800B
:1008FC0023685B0700F1B880A269002A40F01981D7
:10090C000020E8E7A64B9A6802F00C02042A07D0F4
:10091C009A6802F00C02082A0AD15B68590207D5C2
:10092C009F4B1B689A03DCD56368002BD9D1D1E7A8
:10093C0063689B4DB3F5803F11D12B6843F4803332
:10094C002B60FFF71FFE964D06462B689B03C8D401
:10095C00FFF718FE801B6428F7D90320BBE7B3F51B
:10096C00A02F04D12B6843F480232B60E5E72A6881
:10097C0022F480322A602A6822F480222A60002B1A
:10098C00DFD1FFF7FFFD06462B689F03A9D5FFF7C4
:10099C00F9FD801B6428F7D9DFE7814B9A6812F0C8
:1009AC000C0F07D09A6802F00C02082A11D15B6870
:1009BC005E020ED47A4B1A68950702D5E268012ABA
:1009CC0088D11A68216922F0F80242EAC1021A6041
:1009DC008AE7E268734BB2B101221A60FFF7D2FDCD
:1009EC006F4D06462B68980707D52B68226923F0B4
:1009FC00F80343EAC2032B6076E7FFF7C3FD801BC5
:100A0C000228EFD9A9E71A60FFF7BCFD644D064632
:100A1C002B6899077FF568AFFFF7B4FD801B0228A0
:100A2C00F6D99AE76269604B7AB101221A60FFF736
:100A3C00A9FD5B4D06466B6F9F073FF559AFFFF75E
:100A4C00A1FD801B0228F6D987E71A60FFF79AFDF3
:100A5C00534D06466B6F98077FF54AAFFFF792FD33
:100A6C00801B0228F6D978E74D4B1A6C12F0805295
:100A7C0028D101921A6C42F080521A641B6C03F05C
:100A8C0080530193019B0126484D2B68D9051BD53A
:100A9C00A368434D012B27D12B6F43F001032B6728
:100AAC00FFF770FD3E4D074641F288382B6F9B07D0
:100ABC0039D5002E3FF420AF394A136C23F0805304
:100ACC00136419E70026DFE72B6843F480732B606F
:100ADC00FFF758FD07462B68DA05D9D4FFF752FD0E
:100AEC00C01B0228F7D938E7052B04D12B6F43F034
:100AFC0004032B67D0E72A6F22F001022A672A6FC2
:100B0C0022F004022A67002BCAD1FFF73BFD41F209
:100B1C00883807462B6F9807CBD5FFF733FDC01BE2
:100B2C004045F7D919E7FFF72DFDC01B4045BDD94E
:100B3C0013E71B4DAB6803F00C03082B3FF4CAAE54
:100B4C001B4E0023022A336034D1FFF71BFD0746EE
:100B5C002B6899011ED4226AE3691343626A43EA43
:100B6C008213E26A43EA0263A26A0D4C5208013A0C
:100B7C0043EA02436B6001233360FFF703FD054634
:100B8C0023689A013FF5BCAEFFF7FCFC401B022822
:100B9C00F6D9E2E6FFF7F6FCC01B0228D8D9DCE652
:100BAC000038024000004742800E4742007000406F
:100BBC0060004742FFF7E6FC04462B689B017FF57B
:100BCC009FAEFFF7DFFC001B0228F6D9C5E600BF7D
:100BDC00134908B58B6803F00C03042B03D0082BC6
:100BEC0003D0104808BD104808BD4A684B684968D6
:100BFC0013F4800314BF0C480A48C1F3881118BFC2
:100C0C00002302F03F02A1FB0001FFF7E9FA044BBD
:100C1C005B68C3F3014301335B00B0FBF3F008BD29
:100C2C00003802400024F40040787D012DE9F041A9
:100C3C000D46044610B90120BDE8F081444B1A68FA
:100C4C0002F00F028A4228D321688F072DD4C807DF
:100C5C0040D43F4B1A6802F00F02954266D32268CB
:100C6C0051076CD4130707D53A4A2169936823F4CA
:100C7C00604343EAC1039360FFF7AAFF354B364A42
:100C8C009B68C3F30313D35CD840344B186000202B
:100C9C00FFF72EFC0020BDE8F081CAB21A701B6869
:100CAC0003F00F039942C6D1CEE72A4B11F0040F83
:100CBC001EBF9A6842F4E0529A600E0742BF9A68CF
:100CCC0042F460429A609A68A06822F0F0020243F3
:100CDC009A60BCE762681F4B012A1DD11B6813F494
:100CEC00003FA8D01B4EB36823F003031343B3603B
:100CFC00FFF748FC41F288380746B368626803F096
:100D0C000C03B3EB820FA4D0FFF73CFCC01B404597
:100D1C00F3D90320BDE8F081911E01291B6802D88C
:100D2C0013F0007FDDE713F0020FDAE7EAB21A7076
:100D3C001B6803F00F039D427FF47DAF8FE70549DD
:100D4C00E0688B6823F4E05303438B608AE700BFB1
:100D5C00003C024000380240D41900080C0000206E
:100D6C000368F7B59A07044640F08880236813F0AF
:100D7C000C0F44D0804D814E00232B60FFF702FCFA
:100D8C00074633689B0000F1BD8021684F0715D5DD
:100D9C006369D6F8882020691B0602F0E04243EA1A
:100DAC0080131343C6F88830D6F88C30226A23F4AB
:100DBC00F853013A43EA0223C6F88C300E0714D5D7
:100DCC006E4AA369D2F8881020691B0701F0706184
:100DDC0043EA80130B43C2F88830D2F88C30616A36
:100DEC0023F440330B43C2F88C3001232B60FFF704
:100DFC00C9FB624D06462B68980040F18A80236837
:100E0C009A0631D5002301935C4B5D4D1A6C42F070
:100E1C0080521A641B6C03F080530193019B2B6866
:100E2C0043F480732B60FFF7ADFB06462B68D905A6
:100E3C0076D5524D2B6F13F4407377D1A36A03F41C
:100E4C004072B2F5407F4D4A40F09180916823F09A
:100E5C00704021F4F81120F4407001439160116F3F
:100E6C00C3F30B030B431367206810F010001FBF74
:100E7C00444B94F82C201A60002041E0424D3F4E28
:100E8C0000232B60FFF77EFB074633681B0131D430
:100E9C002268D70706D5A36861681B0743EA81134C
:100EAC00C6F88430900715D5344AE368D2F884101C
:100EBC0060681B0601F0E04143EA80130B43C2F863
:100ECC008430D2F88C10E36921F01F01013B0B43F5
:100EDC00C2F88C3001232B60FFF754FB274D0646DC
:100EEC002B6819013FF542AFFFF74CFB801B022822
:100EFC00F6D904E0FFF746FBC01B0228C5D9032036
:100F0C0003B0F0BDFFF73EFBC01B02287FF639AFE4
:100F1C00F5E7FFF737FB801B02287FF66CAFEEE797
:100F2C00FFF730FB801B022880D9E8E7A26A02F4A5
:100F3C004072934282D02B6F144A0121116023F42A
:100F4C004073002111602B672B6FDA077FF576AFAA
:100F5C00FFF718FB41F2883706462B6F9B073FF5CE
:100F6C006DAFFFF70FFB801BB842F6D9C7E791684E
:100F7C0021F4F81172E700BF7000474200380240BC
:100F8C0000700040E011474268004742400E474263
:100F9C002DE9F041069E0446884617461D462268F8
:100FAC00936838EA03030CBF012300239F4202D14C
:100FBC000020BDE8F0816B1CF2D055BB23685A6849
:100FCC0022F0E0025A606268B2F5827F0AD1A26810
:100FDC00B2F5004F02D0B2F5806F03D11A6822F03F
:100FEC0040021A60A26AB2F5005F09D11A6822F4B5
:100FFC0000521204120C1A601A6842F400521A6061
:10100C00012384F85130002384F850300320BDE8CC
:10101C00F081FFF7B7FA801B8542C0D8CEE713B535
:10102C000B460092802100220446FFF7B1FF20B14D
:10103C00636D43F020036365032002B010BD10B54F
:10104C000446002836D00023836290F8513003F018
:10105C00FF021BB980F8502000F0D2FB2168A06879
:10106C00A269022384F851300B6823F040030B6013
:10107C0063680343E06803432069034360690343E7
:10108C00E0690343206A0343A06A034302F400703F
:10109C0003430B60120C636A02F004021A434A60A9
:1010AC00CB6923F40063CB6100200123606584F8D5
:1010BC00513010BD012010BD2DE9FF411E4690F8A6
:1010CC005030012B04460D46904600F09C800123C5
:1010DC0080F85030FFF756FA074694F85100C0B22A
:1010EC00012840F08E80002D4ED0B8F1000F4BD06F
:1010FC00032384F8513000236365A363A4F836807E
:10110C00A387E38763642364A3682563B3F5004F67
:10111C002368A4F8348002BF1A6842F480421A6033
:10112C001A6852065EBF1A6842F040021A60E26802
:10113C00B2F5006F626838D11AB1E28E92B2012A10
:10114C0006D135F8022BDA60E38E013B9BB2E386C5
:10115C00E38E9BB293B900973346012202212046BD
:10116C00FFF716FF78B93A4631462046FFF757FF8E
:10117C00002838D020236365012005E023689A6895
:10118C009007DED44EB90320012384F8513000239C
:10119C0084F8503004B0BDE8F081711CD8D0FFF752
:1011AC00F1F9C01B8642D3D8EDE71AB1E28E92B2A8
:1011BC00012A06D115F8012B1A73E38E013B9BB261
:1011CC00E386E38E9BB2002BC5D023689A68920706
:1011DC00F0D4002ED7D0731CF3D0FFF7D3F9C01B7B
:1011EC008642EED8CFE7A36833B903932368DA6855
:1011FC0003929B680393039B606D003018BF012022
:10120C00C2E70220C0E70220C4E7000086B0204BF2
:10121C0000220092196B41F020011963196B01F047
:10122C002001009100990192196B41F001011963A1
:10123C00196B01F00101019101990292196B41F0B6
:10124C0002011963196B01F00201029102990392D8
:10125C00196B41F010011963196B01F01001039126
:10126C0003990492196B41F008011963196B01F091
:10127C0008010491049905921A6B42F004021A6356
:10128C001B6B03F004030593059B06B0704700BF6E
:10129C0000380240F8B507462A200D4616461C4673
:1012AC0000F08EF8380A00F0B3F8F8B200F0B0F89D
:1012BC00300A00F0ADF8F0B200F0AAF82B2000F0E4
:1012CC007FF8280A00F0A4F8E8B200F0A1F8200A90
:1012DC0000F09EF8E0B200F09BF82C20BDE8F8403E
:1012EC0000F06EB8014B1880704700BF080000205A
:1012FC002DE9F34190461E4607460C46FFF7CAFF00
:10130C000B4B1B888DF805301A0A8DF80420B4425B
:10131C0002DD02B0BDE8F0813D46454501DD0134FA
:10132C00F5E7022101A800F09FF90135F5E700BFB0
:10133C00080000202DE9F04389B000F03FFA1D4B66
:10134C00DFF878801C4E002101911A6B42F00402E8
:10135C001A631A6B02F004020192019A02911A6B41
:10136C0042F008021A631B6B08AD4FF0040945F8F4
:10137C00149D03F0080302930124029B049403239D
:10138C002946404606934FF400570594FFF770F931
:10139C00294630460397FFF76BF9224649464046EB
:1013AC00FFF752FA224639463046FFF74DFA09B09C
:1013BC00BDE8F08300380240000C024000080240F7
:1013CC0037B502AC002204F8010D04210D480E4D76
:1013DC00FFF73AFA00224FF400510C48FFF734FAA9
:1013EC0001231A4621462846FFF766FE2A689368B1
:1013FC009B07FCD5012204210248FFF725FA03B014
:10140C0030BD00BF0008024030000020000C02403C
:10141C0037B502AC002204F8010D04210D480E4D25
:10142C00FFF712FA01224FF400510C48FFF70CFAA7
:10143C0001220A2321462846FFF73EFE2A689368BC
:10144C009B07FCD5012204210248FFF7FDF903B0EC
:10145C0030BD00BF0008024030000020000C0240EC
:10146C0008B50120FFF7ACFF4FF47A70FFF790F846
:10147C00CB20FFF7A5FF3920FFF7CAFF2C20FFF781
:10148C00C7FF0020FFF7C4FF3420FFF7C1FF022085
:10149C00FFF7BEFFCF20FFF793FF0020FFF7B8FF49
:1014AC00C120FFF7B5FF3020FFF7B2FFE820FFF7B0
:1014BC0087FF8520FFF7ACFF0020FFF7A9FF7820FE
:1014CC00FFF7A6FFEA20FFF77BFF0020FFF7A0FF46
:1014DC000020FFF79DFFED20FFF772FF6420FFF760
:1014EC0097FF0320FFF794FF1220FFF791FF812055
:1014FC00FFF78EFFF720FFF763FF2020FFF788FF31
:10150C00C020FFF75DFF2320FFF782FFC120FFF70C
:10151C0057FF1020FFF77CFFC520FFF751FF3E203F
:10152C00FFF776FF2820FFF773FFC720FFF748FF70
:10153C008620FFF76DFF3620FFF742FF4820FFF7AC
:10154C0067FF3A20FFF73CFF5520FFF761FFB12002
:10155C00FFF736FF0020FFF75BFF1820FFF758FF5F
:10156C00B620FFF72DFF0820FFF752FF8220FFF770
:10157C004FFF2720FFF74CFFF220FFF721FF002041
:10158C00FFF746FF2620FFF71BFF0120FFF740FF68
:10159C00E020FFF715FF0F20FFF73AFF3120FFF790
:1015AC0037FF2B20FFF734FF0C20FFF731FF0E2005
:1015BC00FFF72EFF0820FFF72BFF4E20FFF728FF29
:1015CC00F120FFF725FF3720FFF722FF0720FFF759
:1015DC001FFF1020FFF71CFF0320FFF719FF0E2041
:1015EC00FFF716FF0920FFF713FF0020FFF710FF8E
:1015FC00E120FFF7E5FE0020FFF70AFF0E20FFF7C2
:10160C0007FF1420FFF704FF0320FFF701FF112051
:10161C00FFF7FEFE0720FFF7FBFE3120FFF7F8FE79
:10162C00C120FFF7F5FE4820FFF7F2FE0820FFF778
:10163C00EFFE0F20FFF7ECFE0C20FFF7E9FE312048
:10164C00FFF7E6FE3620FFF7E3FE0F20FFF7E0FE84
:10165C001120FFF7B5FE7820FEF79AFF2920BDE890
:10166C000840FFF7ADBE000038B500220546042146
:10167C000D480E4CFFF7E8F801224FF400510C48CE
:10168C00FFF7E2F802220A2329462046FFF714FD51
:10169C00226893689B07FCD5012204210248BDE80F
:1016AC003840FFF7D1B800BF0008024030000020DE
:1016BC00000C024070B53024A0B02246002108A8CE
:1016CC0000F06EF91422002103A800F069F9002142
:1016DC00224614A800F064F90025224B01951A6CDF
:1016EC0042F080521A641B6C1F4A03F08053019322
:1016FC00019B0295136823F4404343F48043136029
:10170C0013680F9503F440430293029B01230B9340
:10171C0010230C93B42302240826119308A8042345
:10172C00139308940E9410961294FFF7CFF8FFF7CA
:10173C0091F80F2303938023059321464FF4805394
:10174C0003A8069307930494FFF770FA38231893B1
:10175C0014A8072314961A931D95FFF701FB20B0CC
:10176C0070BD00BF003802400070004008B5FEF7A5
:10177C00E3FEFFF79FFFFFF749FDFFF7DBFDFFF7E8
:10178C006FFE42F65A60FFF7ADFD1E2378220A2148
:10179C006420FFF7ADFD0120FEF7FAFE4DF6046064
:1017AC00FFF7A0FD1E2378220A216420FFF7A0FD7D
:1017BC000120FEF7EDFEE4E7704700000E480F4AEB
:1017CC0008B54FF4004C4FF4827380E80C100023E2
:1017DC00C360036143614FF40072C36103624362EF
:1017EC0083620A238261C362FFF729FC18B1BDE84A
:1017FC000840FFF7E1BF08BD300000200050014059
:10180C0010B5044688B01422002103A800F0C8F8D3
:10181C002268144B9A4223D103F5684300210191AD
:10182C005A6C114842F480125A645A6C02F48012B9
:10183C000192019A02911A6B42F020021A631B6BFF
:10184C0003F020030293029B4FF4207303930223B3
:10185C0004930323069303A905230793FEF708FFBC
:10186C0008B010BD005001400014024082B00C4B77
:10187C00002100915A6C42F480425A645A6C02F472
:10188C0080420092009A01911A6C42F080521A64C4
:10189C001B6C03F080530193019B02B0704700BF97
:1018AC00003802407047FEE7FEE7FEE7FEE77047B0
:1018BC0070477047FEF75ABE0F49D1F8883043F491
:1018CC007003C1F888300D4B1A68002042F00102F9
:1018DC001A6098601A6822F0847222F480321A60BE
:1018EC00074A5A601A6822F480221A60D8604FF0B6
:1018FC0000638B60704700BF00ED00E000380240D1
:10190C0010300024DFF834D0002103E00C4B5B587E
:10191C00435004310B480C4B42189A42F6D30B4AF5
:10192C0002E0002342F8043B094B9A42F9D3FFF73B
:10193C00C3FF00F011F8FFF719FF704700000320F8
:10194C00F4190008000000201000002010000020F6
:10195C0088000020FEE7000070B50D4E0D4CA41B56
:10196C00A4100025A54209D10B4E0C4C00F020F818
:10197C00A41BA4100025A54205D170BD56F8253036
:10198C0098470135EEE756F8253098470135F2E7D0
:10199C00EC190008EC190008EC190008F019000803
:1019AC0002440346934200D1704703F8011BF9E748
:1019BC00F8B500BFF8BC08BC9E467047F8B500BF30
:0819CC00F8BC08BC9E46704700
:1019D40000000000000000000102030406070809DB
:0819E40038E8FF7F010000005C
:0419EC00D10100081D
:0419F000AD0100083D
:1019F4000100000010000000665500000024F400FF
:0400000508001911C5
:00000001FF
